{
  "contractName": "TicketContract",
  "abi": [
    {
      "anonymous": false,
      "inputs": [
        {
          "components": [
            {
              "internalType": "bytes32",
              "name": "ticketId",
              "type": "bytes32"
            },
            {
              "internalType": "uint64",
              "name": "patientAadhar",
              "type": "uint64"
            },
            {
              "internalType": "uint64",
              "name": "doctorAadhar",
              "type": "uint64"
            },
            {
              "internalType": "string",
              "name": "diagnosticId",
              "type": "string"
            },
            {
              "internalType": "string",
              "name": "hospitalId",
              "type": "string"
            },
            {
              "internalType": "uint256",
              "name": "creationTimestamp",
              "type": "uint256"
            },
            {
              "internalType": "string",
              "name": "description",
              "type": "string"
            },
            {
              "internalType": "string",
              "name": "ipfsHash",
              "type": "string"
            }
          ],
          "indexed": false,
          "internalType": "struct TicketContract.Ticket[]",
          "name": "tickets",
          "type": "tuple[]"
        }
      ],
      "name": "GetData",
      "type": "event"
    },
    {
      "anonymous": false,
      "inputs": [
        {
          "indexed": false,
          "internalType": "bytes32",
          "name": "ticketId",
          "type": "bytes32"
        }
      ],
      "name": "TicketCreated",
      "type": "event"
    },
    {
      "inputs": [
        {
          "internalType": "uint64",
          "name": "_patientAadhar",
          "type": "uint64"
        },
        {
          "internalType": "uint64",
          "name": "_doctorAadhar",
          "type": "uint64"
        },
        {
          "internalType": "string",
          "name": "_diagnosticId",
          "type": "string"
        },
        {
          "internalType": "string",
          "name": "_hospitalId",
          "type": "string"
        },
        {
          "internalType": "string",
          "name": "_description",
          "type": "string"
        },
        {
          "internalType": "string",
          "name": "_ipfsHash",
          "type": "string"
        }
      ],
      "name": "createTicket",
      "outputs": [],
      "stateMutability": "nonpayable",
      "type": "function"
    },
    {
      "inputs": [
        {
          "internalType": "bytes32",
          "name": "_ticketId",
          "type": "bytes32"
        }
      ],
      "name": "getTicketData",
      "outputs": [
        {
          "components": [
            {
              "internalType": "bytes32",
              "name": "ticketId",
              "type": "bytes32"
            },
            {
              "internalType": "uint64",
              "name": "patientAadhar",
              "type": "uint64"
            },
            {
              "internalType": "uint64",
              "name": "doctorAadhar",
              "type": "uint64"
            },
            {
              "internalType": "string",
              "name": "diagnosticId",
              "type": "string"
            },
            {
              "internalType": "string",
              "name": "hospitalId",
              "type": "string"
            },
            {
              "internalType": "uint256",
              "name": "creationTimestamp",
              "type": "uint256"
            },
            {
              "internalType": "string",
              "name": "description",
              "type": "string"
            },
            {
              "internalType": "string",
              "name": "ipfsHash",
              "type": "string"
            }
          ],
          "internalType": "struct TicketContract.Ticket",
          "name": "",
          "type": "tuple"
        }
      ],
      "stateMutability": "view",
      "type": "function",
      "constant": true
    },
    {
      "inputs": [
        {
          "internalType": "uint64",
          "name": "_patientAadhar",
          "type": "uint64"
        }
      ],
      "name": "getAllTicketsPatient",
      "outputs": [],
      "stateMutability": "nonpayable",
      "type": "function"
    },
    {
      "inputs": [
        {
          "internalType": "uint64",
          "name": "_doctorAadhar",
          "type": "uint64"
        }
      ],
      "name": "getAllTicketsDoctor",
      "outputs": [],
      "stateMutability": "nonpayable",
      "type": "function"
    },
    {
      "inputs": [
        {
          "internalType": "string",
          "name": "_hospitalId",
          "type": "string"
        }
      ],
      "name": "getAllTicketsHospital",
      "outputs": [],
      "stateMutability": "nonpayable",
      "type": "function"
    },
    {
      "inputs": [
        {
          "internalType": "string",
          "name": "_diagnosticId",
          "type": "string"
        }
      ],
      "name": "getAllTicketsDiagnostic",
      "outputs": [],
      "stateMutability": "nonpayable",
      "type": "function"
    },
    {
      "inputs": [
        {
          "internalType": "bytes32",
          "name": "_ticketId",
          "type": "bytes32"
        },
        {
          "internalType": "string",
          "name": "_diagnosticId",
          "type": "string"
        }
      ],
      "name": "updateTicketDiagnostic",
      "outputs": [
        {
          "internalType": "bytes32",
          "name": "",
          "type": "bytes32"
        }
      ],
      "stateMutability": "nonpayable",
      "type": "function"
    },
    {
      "inputs": [
        {
          "internalType": "bytes32",
          "name": "_ticketId",
          "type": "bytes32"
        },
        {
          "internalType": "string",
          "name": "_newHash",
          "type": "string"
        }
      ],
      "name": "updateTicketData",
      "outputs": [
        {
          "internalType": "bytes32",
          "name": "",
          "type": "bytes32"
        }
      ],
      "stateMutability": "nonpayable",
      "type": "function"
    }
  ],
  "bytecode": "0x608060405234801561001057600080fd5b50611adb806100206000396000f3fe608060405234801561001057600080fd5b50600436106100885760003560e01c80639dd93a1a1161005b5780639dd93a1a14610111578063ad7802ad1461012d578063c361240614610149578063ce6091e71461017957610088565b80632221cc501461008d57806333111bc6146100bd57806390a3540e146100d9578063951bdbf2146100f5575b600080fd5b6100a760048036038101906100a2919061118d565b6101a9565b6040516100b4919061174e565b60405180910390f35b6100d760048036038101906100d29190611267565b6101da565b005b6100f360048036038101906100ee91906111ed565b610613565b005b61010f600480360381019061010a919061123a565b61077d565b005b61012b600480360381019061012691906111ed565b6108ed565b005b6101476004803603810190610142919061123a565b610a57565b005b610163600480360381019061015e919061118d565b610bc7565b604051610170919061174e565b60405180910390f35b610193600480360381019061018e9190611160565b610bf8565b6040516101a09190611789565b60405180910390f35b6000828260008087815260200190815260200160002060020191906101cf929190610f5b565b508390509392505050565b6000426001436101ea919061181c565b406040516020016101fc9291906116a5565b60405160208183030381529060405280519060200120905060008b8b8b8b8b8b8760405160200161023397969594939291906116d1565b6040516020818303038152906040528051906020012090506040518061010001604052808281526020018d67ffffffffffffffff1681526020018c67ffffffffffffffff1681526020018b8b8080601f016020809104026020016040519081016040528093929190818152602001838380828437600081840152601f19601f82011690508083019250505050505050815260200189898080601f016020809104026020016040519081016040528093929190818152602001838380828437600081840152601f19601f82011690508083019250505050505050815260200142815260200187878080601f016020809104026020016040519081016040528093929190818152602001838380828437600081840152601f19601f82011690508083019250505050505050815260200185858080601f016020809104026020016040519081016040528093929190818152602001838380828437600081840152601f19601f820116905080830192505050505050508152506000808381526020019081526020016000206000820151816000015560208201518160010160006101000a81548167ffffffffffffffff021916908367ffffffffffffffff16021790555060408201518160010160086101000a81548167ffffffffffffffff021916908367ffffffffffffffff160217905550606082015181600201908051906020019061043f929190610fe1565b50608082015181600301908051906020019061045c929190610fe1565b5060a0820151816004015560c0820151816005019080519060200190610483929190610fe1565b5060e08201518160060190805190602001906104a0929190610fe1565b50905050600188886040516104b692919061168c565b9081526020016040518091039020819080600181540180825580915050600190039060005260206000200160009091909190915055600260008d67ffffffffffffffff1667ffffffffffffffff16815260200190815260200160002081908060018154018082558091505060019003906000526020600020016000909190919091505560038a8a60405161054b92919061168c565b9081526020016040518091039020819080600181540180825580915050600190039060005260206000200160009091909190915055600460008c67ffffffffffffffff1667ffffffffffffffff1681526020019081526020016000208190806001815401808255809150506001900390600052602060002001600090919091909150557f7c793cced5743dc5f531bbe2bfb5a9fa3f40adef29231e6ab165c08a29e3dd89816040516105fd919061174e565b60405180910390a1505050505050505050505050565b60006003838360405161062792919061168c565b908152602001604051809103902080548060200260200160405190810160405280929190818152602001828054801561067f57602002820191906000526020600020905b81548152602001906001019080831161066b575b505050505090506000815167ffffffffffffffff8111156106a3576106a26119e8565b5b6040519080825280602002602001820160405280156106dc57816020015b6106c9611067565b8152602001906001900390816106c15790505b50905060005b825181101561073f5761070e838281518110610701576107006119b9565b5b6020026020010151610bf8565b828281518110610721576107206119b9565b5b60200260200101819052508080610737906118ec565b9150506106e2565b507fbf411d30aaded99aa1af71c6b41fb2bfbe2e5cb90f74d59b89afe85218d859758160405161076f919061172c565b60405180910390a150505050565b6000600260008367ffffffffffffffff1667ffffffffffffffff1681526020019081526020016000208054806020026020016040519081016040528092919081815260200182805480156107f057602002820191906000526020600020905b8154815260200190600101908083116107dc575b505050505090506000815167ffffffffffffffff811115610814576108136119e8565b5b60405190808252806020026020018201604052801561084d57816020015b61083a611067565b8152602001906001900390816108325790505b50905060005b82518110156108b05761087f838281518110610872576108716119b9565b5b6020026020010151610bf8565b828281518110610892576108916119b9565b5b602002602001018190525080806108a8906118ec565b915050610853565b507fbf411d30aaded99aa1af71c6b41fb2bfbe2e5cb90f74d59b89afe85218d85975816040516108e0919061172c565b60405180910390a1505050565b60006001838360405161090192919061168c565b908152602001604051809103902080548060200260200160405190810160405280929190818152602001828054801561095957602002820191906000526020600020905b815481526020019060010190808311610945575b505050505090506000815167ffffffffffffffff81111561097d5761097c6119e8565b5b6040519080825280602002602001820160405280156109b657816020015b6109a3611067565b81526020019060019003908161099b5790505b50905060005b8251811015610a19576109e88382815181106109db576109da6119b9565b5b6020026020010151610bf8565b8282815181106109fb576109fa6119b9565b5b60200260200101819052508080610a11906118ec565b9150506109bc565b507fbf411d30aaded99aa1af71c6b41fb2bfbe2e5cb90f74d59b89afe85218d8597581604051610a49919061172c565b60405180910390a150505050565b6000600460008367ffffffffffffffff1667ffffffffffffffff168152602001908152602001600020805480602002602001604051908101604052809291908181526020018280548015610aca57602002820191906000526020600020905b815481526020019060010190808311610ab6575b505050505090506000815167ffffffffffffffff811115610aee57610aed6119e8565b5b604051908082528060200260200182016040528015610b2757816020015b610b14611067565b815260200190600190039081610b0c5790505b50905060005b8251811015610b8a57610b59838281518110610b4c57610b4b6119b9565b5b6020026020010151610bf8565b828281518110610b6c57610b6b6119b9565b5b60200260200101819052508080610b82906118ec565b915050610b2d565b507fbf411d30aaded99aa1af71c6b41fb2bfbe2e5cb90f74d59b89afe85218d8597581604051610bba919061172c565b60405180910390a1505050565b600082826000808781526020019081526020016000206006019190610bed929190610f5b565b508390509392505050565b610c00611067565b600080600084815260200190815260200160002060010160009054906101000a900467ffffffffffffffff1667ffffffffffffffff1611610c76576040517f08c379a0000000000000000000000000000000000000000000000000000000008152600401610c6d90611769565b60405180910390fd5b60008083815260200190815260200160002060405180610100016040529081600082015481526020016001820160009054906101000a900467ffffffffffffffff1667ffffffffffffffff1667ffffffffffffffff1681526020016001820160089054906101000a900467ffffffffffffffff1667ffffffffffffffff1667ffffffffffffffff168152602001600282018054610d12906118ba565b80601f0160208091040260200160405190810160405280929190818152602001828054610d3e906118ba565b8015610d8b5780601f10610d6057610100808354040283529160200191610d8b565b820191906000526020600020905b815481529060010190602001808311610d6e57829003601f168201915b50505050508152602001600382018054610da4906118ba565b80601f0160208091040260200160405190810160405280929190818152602001828054610dd0906118ba565b8015610e1d5780601f10610df257610100808354040283529160200191610e1d565b820191906000526020600020905b815481529060010190602001808311610e0057829003601f168201915b5050505050815260200160048201548152602001600582018054610e40906118ba565b80601f0160208091040260200160405190810160405280929190818152602001828054610e6c906118ba565b8015610eb95780601f10610e8e57610100808354040283529160200191610eb9565b820191906000526020600020905b815481529060010190602001808311610e9c57829003601f168201915b50505050508152602001600682018054610ed2906118ba565b80601f0160208091040260200160405190810160405280929190818152602001828054610efe906118ba565b8015610f4b5780601f10610f2057610100808354040283529160200191610f4b565b820191906000526020600020905b815481529060010190602001808311610f2e57829003601f168201915b5050505050815250509050919050565b828054610f67906118ba565b90600052602060002090601f016020900481019282610f895760008555610fd0565b82601f10610fa257803560ff1916838001178555610fd0565b82800160010185558215610fd0579182015b82811115610fcf578235825591602001919060010190610fb4565b5b509050610fdd91906110c3565b5090565b828054610fed906118ba565b90600052602060002090601f01602090048101928261100f5760008555611056565b82601f1061102857805160ff1916838001178555611056565b82800160010185558215611056579182015b8281111561105557825182559160200191906001019061103a565b5b50905061106391906110c3565b5090565b60405180610100016040528060008019168152602001600067ffffffffffffffff168152602001600067ffffffffffffffff16815260200160608152602001606081526020016000815260200160608152602001606081525090565b5b808211156110dc5760008160009055506001016110c4565b5090565b6000813590506110ef81611a77565b92915050565b60008083601f84011261110b5761110a611a1c565b5b8235905067ffffffffffffffff81111561112857611127611a17565b5b60208301915083600182028301111561114457611143611a21565b5b9250929050565b60008135905061115a81611a8e565b92915050565b60006020828403121561117657611175611a2b565b5b6000611184848285016110e0565b91505092915050565b6000806000604084860312156111a6576111a5611a2b565b5b60006111b4868287016110e0565b935050602084013567ffffffffffffffff8111156111d5576111d4611a26565b5b6111e1868287016110f5565b92509250509250925092565b6000806020838503121561120457611203611a2b565b5b600083013567ffffffffffffffff81111561122257611221611a26565b5b61122e858286016110f5565b92509250509250929050565b6000602082840312156112505761124f611a2b565b5b600061125e8482850161114b565b91505092915050565b60008060008060008060008060008060c08b8d03121561128a57611289611a2b565b5b60006112988d828e0161114b565b9a505060206112a98d828e0161114b565b99505060408b013567ffffffffffffffff8111156112ca576112c9611a26565b5b6112d68d828e016110f5565b985098505060608b013567ffffffffffffffff8111156112f9576112f8611a26565b5b6113058d828e016110f5565b965096505060808b013567ffffffffffffffff81111561132857611327611a26565b5b6113348d828e016110f5565b945094505060a08b013567ffffffffffffffff81111561135757611356611a26565b5b6113638d828e016110f5565b92509250509295989b9194979a5092959850565b600061138383836114b6565b905092915050565b6000611396826117bb565b6113a081856117de565b9350836020820285016113b2856117ab565b8060005b858110156113ee57848403895281516113cf8582611377565b94506113da836117d1565b925060208a019950506001810190506113b6565b50829750879550505050505092915050565b61140981611850565b82525050565b61141881611850565b82525050565b61142f61142a82611850565b611935565b82525050565b60006114418385611811565b935061144e838584611878565b82840190509392505050565b6000611465826117c6565b61146f81856117ef565b935061147f818560208601611887565b61148881611a30565b840191505092915050565b60006114a0601183611800565b91506114ab82611a4e565b602082019050919050565b6000610100830160008301516114cf6000860182611400565b5060208301516114e26020860182611666565b5060408301516114f56040860182611666565b506060830151848203606086015261150d828261145a565b91505060808301518482036080860152611527828261145a565b91505060a083015161153c60a0860182611640565b5060c083015184820360c0860152611554828261145a565b91505060e083015184820360e086015261156e828261145a565b9150508091505092915050565b6000610100830160008301516115946000860182611400565b5060208301516115a76020860182611666565b5060408301516115ba6040860182611666565b50606083015184820360608601526115d2828261145a565b915050608083015184820360808601526115ec828261145a565b91505060a083015161160160a0860182611640565b5060c083015184820360c0860152611619828261145a565b91505060e083015184820360e0860152611633828261145a565b9150508091505092915050565b6116498161185a565b82525050565b61166061165b8261185a565b61193f565b82525050565b61166f81611864565b82525050565b61168661168182611864565b611949565b82525050565b6000611699828486611435565b91508190509392505050565b60006116b1828561164f565b6020820191506116c1828461141e565b6020820191508190509392505050565b60006116dd828a611675565b6008820191506116ed8289611675565b6008820191506116fe828789611435565b915061170b828587611435565b9150611717828461141e565b60208201915081905098975050505050505050565b60006020820190508181036000830152611746818461138b565b905092915050565b6000602082019050611763600083018461140f565b92915050565b6000602082019050818103600083015261178281611493565b9050919050565b600060208201905081810360008301526117a3818461157b565b905092915050565b6000819050602082019050919050565b600081519050919050565b600081519050919050565b6000602082019050919050565b600082825260208201905092915050565b600082825260208201905092915050565b600082825260208201905092915050565b600081905092915050565b60006118278261185a565b91506118328361185a565b9250828210156118455761184461195b565b5b828203905092915050565b6000819050919050565b6000819050919050565b600067ffffffffffffffff82169050919050565b82818337600083830152505050565b60005b838110156118a557808201518184015260208101905061188a565b838111156118b4576000848401525b50505050565b600060028204905060018216806118d257607f821691505b602082108114156118e6576118e561198a565b5b50919050565b60006118f78261185a565b91507fffffffffffffffffffffffffffffffffffffffffffffffffffffffffffffffff82141561192a5761192961195b565b5b600182019050919050565b6000819050919050565b6000819050919050565b600061195482611a41565b9050919050565b7f4e487b7100000000000000000000000000000000000000000000000000000000600052601160045260246000fd5b7f4e487b7100000000000000000000000000000000000000000000000000000000600052602260045260246000fd5b7f4e487b7100000000000000000000000000000000000000000000000000000000600052603260045260246000fd5b7f4e487b7100000000000000000000000000000000000000000000000000000000600052604160045260246000fd5b600080fd5b600080fd5b600080fd5b600080fd5b600080fd5b6000601f19601f8301169050919050565b60008160c01b9050919050565b7f496e76616c6964207469636b6574204944000000000000000000000000000000600082015250565b611a8081611850565b8114611a8b57600080fd5b50565b611a9781611864565b8114611aa257600080fd5b5056fea26469706673582212200925a58143183982ba64c1b7c8539380489f39b4089801260e14f3f3bdb1f37764736f6c63430008070033",
  "immutableReferences": {},
  "source": "// SPDX-License-Identifier: MIT\r\npragma solidity ^0.8.7;\r\n\r\ncontract TicketContract {\r\n    struct Ticket {\r\n        bytes32 ticketId;\r\n        uint64 patientAadhar;\r\n        uint64 doctorAadhar;\r\n        string diagnosticId;\r\n        string hospitalId;\r\n        uint256 creationTimestamp;\r\n        string description;\r\n        string ipfsHash;\r\n    }\r\n\r\n    mapping(bytes32 => Ticket) private Tickets;\r\n    mapping(string => bytes32[]) private Hospitals;\r\n    mapping(uint64 => bytes32[]) private Patients;\r\n    mapping(string => bytes32[]) private Diagnostics;\r\n    mapping(uint64 => bytes32[]) private Doctors;\r\n\r\n    // Create new ticket for patient.\r\n    event TicketCreated(bytes32 ticketId);\r\n\r\n    function createTicket(\r\n        uint64 _patientAadhar,\r\n        uint64 _doctorAadhar,\r\n        string calldata _diagnosticId,\r\n        string calldata _hospitalId,\r\n        string calldata _description,\r\n        string calldata _ipfsHash\r\n    ) external {\r\n        bytes32 randomHash = keccak256(\r\n            abi.encodePacked(block.timestamp, blockhash(block.number - 1))\r\n        );\r\n        bytes32 ticketId = keccak256(\r\n            abi.encodePacked(\r\n                _patientAadhar,\r\n                _doctorAadhar,\r\n                _diagnosticId,\r\n                _hospitalId,\r\n                randomHash\r\n            )\r\n        );\r\n        Tickets[ticketId] = Ticket(\r\n            ticketId,\r\n            _patientAadhar,\r\n            _doctorAadhar,\r\n            _diagnosticId,\r\n            _hospitalId,\r\n            block.timestamp, // Set the creation timestamp\r\n            _description,\r\n            _ipfsHash\r\n        );\r\n        Hospitals[_hospitalId].push(ticketId);\r\n        Patients[_patientAadhar].push(ticketId);\r\n        Diagnostics[_diagnosticId].push(ticketId);\r\n        Doctors[_doctorAadhar].push(ticketId);\r\n        emit TicketCreated(ticketId);\r\n    }\r\n\r\n    // Get contract\r\n    function getTicketData(\r\n        bytes32 _ticketId\r\n    ) public view returns (Ticket memory) {\r\n        require(Tickets[_ticketId].patientAadhar > 0, \"Invalid ticket ID\");\r\n        return Tickets[_ticketId];\r\n    }\r\n\r\n    event GetData(Ticket[] tickets);\r\n\r\n    function getAllTicketsPatient(uint64 _patientAadhar) external {\r\n        bytes32[] memory patientTickets = Patients[_patientAadhar];\r\n        Ticket[] memory patientTicketData = new Ticket[](patientTickets.length);\r\n        for (uint256 i = 0; i < patientTickets.length; i++) {\r\n            patientTicketData[i] = getTicketData(patientTickets[i]);\r\n        }\r\n        emit GetData(patientTicketData);\r\n    }\r\n\r\n    function getAllTicketsDoctor(uint64 _doctorAadhar) external {\r\n        bytes32[] memory doctorTickets = Doctors[_doctorAadhar];\r\n        Ticket[] memory doctorTicketData = new Ticket[](doctorTickets.length);\r\n        for (uint256 i = 0; i < doctorTickets.length; i++) {\r\n            doctorTicketData[i] = getTicketData(doctorTickets[i]);\r\n        }\r\n        emit GetData(doctorTicketData);\r\n    }\r\n\r\n    function getAllTicketsHospital(string calldata _hospitalId) external {\r\n        bytes32[] memory hospitalTickets = Hospitals[_hospitalId];\r\n        Ticket[] memory hospitalTicketData = new Ticket[](\r\n            hospitalTickets.length\r\n        );\r\n        for (uint256 i = 0; i < hospitalTickets.length; i++) {\r\n            hospitalTicketData[i] = getTicketData(hospitalTickets[i]);\r\n        }\r\n        emit GetData(hospitalTicketData);\r\n    }\r\n\r\n    function getAllTicketsDiagnostic(string calldata _diagnosticId) external {\r\n        bytes32[] memory diagnosticTickets = Diagnostics[_diagnosticId];\r\n        Ticket[] memory diagnosticTicketData = new Ticket[](\r\n            diagnosticTickets.length\r\n        );\r\n        for (uint256 i = 0; i < diagnosticTickets.length; i++) {\r\n            diagnosticTicketData[i] = getTicketData(diagnosticTickets[i]);\r\n        }\r\n        emit GetData(diagnosticTicketData);\r\n    }\r\n\r\n    function updateTicketDiagnostic(\r\n        bytes32 _ticketId,\r\n        string calldata _diagnosticId\r\n    ) external returns (bytes32) {\r\n        Tickets[_ticketId].diagnosticId = _diagnosticId;\r\n        return _ticketId;\r\n    }\r\n\r\n    function updateTicketData(\r\n        bytes32 _ticketId,\r\n        string calldata _newHash\r\n    ) external returns (bytes32) {\r\n        Tickets[_ticketId].ipfsHash = _newHash;\r\n        return _ticketId;\r\n    }\r\n}\r\n",
  "sourcePath": "C:\\Users\\amanc\\OneDrive\\Desktop\\MedBez\\contracts\\TicketContract.sol",
  "compiler": {
    "name": "solc",
    "version": "0.8.7+commit.e28d00a7.Emscripten.clang"
  },
  "schemaVersion": "3.4.14",
  "updatedAt": "2023-08-19T07:11:14.727Z",
  "networkType": "ethereum",
  "devdoc": {
    "kind": "dev",
    "methods": {},
    "version": 1
  },
  "userdoc": {
    "kind": "user",
    "methods": {},
    "version": 1
  }
}