{
  "contractName": "VaultContract",
  "abi": [
    {
      "anonymous": false,
      "inputs": [
        {
          "components": [
            {
              "internalType": "bytes32",
              "name": "recordId",
              "type": "bytes32"
            },
            {
              "internalType": "uint64",
              "name": "patientAadhar",
              "type": "uint64"
            },
            {
              "internalType": "string",
              "name": "description",
              "type": "string"
            },
            {
              "internalType": "uint256",
              "name": "date",
              "type": "uint256"
            },
            {
              "internalType": "string",
              "name": "file",
              "type": "string"
            },
            {
              "internalType": "uint64[]",
              "name": "viewers",
              "type": "uint64[]"
            }
          ],
          "indexed": false,
          "internalType": "struct VaultContract.Record[]",
          "name": "records",
          "type": "tuple[]"
        }
      ],
      "name": "GetRecords",
      "type": "event"
    },
    {
      "inputs": [
        {
          "internalType": "uint64",
          "name": "_patientAadhar",
          "type": "uint64"
        },
        {
          "internalType": "string",
          "name": "_description",
          "type": "string"
        },
        {
          "internalType": "uint256",
          "name": "_date",
          "type": "uint256"
        },
        {
          "internalType": "string",
          "name": "_file",
          "type": "string"
        }
      ],
      "name": "createRecord",
      "outputs": [],
      "stateMutability": "nonpayable",
      "type": "function"
    },
    {
      "inputs": [
        {
          "internalType": "bytes32",
          "name": "_recordId",
          "type": "bytes32"
        },
        {
          "internalType": "string",
          "name": "file",
          "type": "string"
        }
      ],
      "name": "addFilesToRecord",
      "outputs": [],
      "stateMutability": "nonpayable",
      "type": "function"
    },
    {
      "inputs": [
        {
          "internalType": "bytes32",
          "name": "_recordId",
          "type": "bytes32"
        },
        {
          "internalType": "uint64",
          "name": "_doctorAadhar",
          "type": "uint64"
        }
      ],
      "name": "grantAccess",
      "outputs": [],
      "stateMutability": "nonpayable",
      "type": "function"
    },
    {
      "inputs": [
        {
          "internalType": "bytes32",
          "name": "_recordId",
          "type": "bytes32"
        },
        {
          "internalType": "uint64",
          "name": "_doctorAadhar",
          "type": "uint64"
        }
      ],
      "name": "revokeAccess",
      "outputs": [],
      "stateMutability": "nonpayable",
      "type": "function"
    },
    {
      "inputs": [
        {
          "internalType": "uint64",
          "name": "_doctorAadhar",
          "type": "uint64"
        }
      ],
      "name": "getRecordsDoctor",
      "outputs": [],
      "stateMutability": "nonpayable",
      "type": "function"
    },
    {
      "inputs": [
        {
          "internalType": "uint64",
          "name": "_patientAadhar",
          "type": "uint64"
        }
      ],
      "name": "getRecordsPatient",
      "outputs": [],
      "stateMutability": "nonpayable",
      "type": "function"
    }
  ],
  "bytecode": "0x608060405234801561001057600080fd5b50611c53806100206000396000f3fe608060405234801561001057600080fd5b50600436106100625760003560e01c806342cfae671461006757806347bcb00e14610083578063799383b91461009f57806398477dc5146100bb578063c9d38073146100d7578063e432bb1d146100f3575b600080fd5b610081600480360381019061007c9190611500565b61010f565b005b61009d60048036038101906100989190611500565b610489565b005b6100b960048036038101906100b491906114c0565b610803565b005b6100d560048036038101906100d09190611460565b610ddc565b005b6100f160048036038101906100ec91906114c0565b610e06565b005b61010d6004803603810190610108919061152d565b610ec1565b005b6000600260008367ffffffffffffffff1667ffffffffffffffff16815260200190815260200160002080548060200260200160405190810160405280929190818152602001828054801561018257602002820191906000526020600020905b81548152602001906001019080831161016e575b505050505090506000815167ffffffffffffffff8111156101a6576101a5611b72565b5b6040519080825280602002602001820160405280156101df57816020015b6101cc611139565b8152602001906001900390816101c45790505b50905060005b825181101561044c5760008084838151811061020457610203611b43565b5b602002602001015181526020019081526020016000206040518060c0016040529081600082015481526020016001820160009054906101000a900467ffffffffffffffff1667ffffffffffffffff1667ffffffffffffffff16815260200160028201805461027190611a13565b80601f016020809104026020016040519081016040528092919081815260200182805461029d90611a13565b80156102ea5780601f106102bf576101008083540402835291602001916102ea565b820191906000526020600020905b8154815290600101906020018083116102cd57829003601f168201915b505050505081526020016003820154815260200160048201805461030d90611a13565b80601f016020809104026020016040519081016040528092919081815260200182805461033990611a13565b80156103865780601f1061035b57610100808354040283529160200191610386565b820191906000526020600020905b81548152906001019060200180831161036957829003601f168201915b505050505081526020016005820180548060200260200160405190810160405280929190818152602001828054801561041257602002820191906000526020600020906000905b82829054906101000a900467ffffffffffffffff1667ffffffffffffffff16815260200190600801906020826007010492830192600103820291508084116103cd5790505b50505050508152505082828151811061042e5761042d611b43565b5b6020026020010181905250808061044490611a45565b9150506101e5565b507f306a7c31fcd30a61fe41f86df2e7410d299fae9c20c7cf516b1c42e91bdb95cb8160405161047c919061187e565b60405180910390a1505050565b6000600160008367ffffffffffffffff1667ffffffffffffffff1681526020019081526020016000208054806020026020016040519081016040528092919081815260200182805480156104fc57602002820191906000526020600020905b8154815260200190600101908083116104e8575b505050505090506000815167ffffffffffffffff8111156105205761051f611b72565b5b60405190808252806020026020018201604052801561055957816020015b610546611139565b81526020019060019003908161053e5790505b50905060005b82518110156107c65760008084838151811061057e5761057d611b43565b5b602002602001015181526020019081526020016000206040518060c0016040529081600082015481526020016001820160009054906101000a900467ffffffffffffffff1667ffffffffffffffff1667ffffffffffffffff1681526020016002820180546105eb90611a13565b80601f016020809104026020016040519081016040528092919081815260200182805461061790611a13565b80156106645780601f1061063957610100808354040283529160200191610664565b820191906000526020600020905b81548152906001019060200180831161064757829003601f168201915b505050505081526020016003820154815260200160048201805461068790611a13565b80601f01602080910402602001604051908101604052809291908181526020018280546106b390611a13565b80156107005780601f106106d557610100808354040283529160200191610700565b820191906000526020600020905b8154815290600101906020018083116106e357829003601f168201915b505050505081526020016005820180548060200260200160405190810160405280929190818152602001828054801561078c57602002820191906000526020600020906000905b82829054906101000a900467ffffffffffffffff1667ffffffffffffffff16815260200190600801906020826007010492830192600103820291508084116107475790505b5050505050815250508282815181106107a8576107a7611b43565b5b602002602001018190525080806107be90611a45565b91505061055f565b507f306a7c31fcd30a61fe41f86df2e7410d299fae9c20c7cf516b1c42e91bdb95cb816040516107f6919061187e565b60405180910390a1505050565b6000600260008367ffffffffffffffff1667ffffffffffffffff16815260200190815260200160002080548060200260200160405190810160405280929190818152602001828054801561087657602002820191906000526020600020905b815481526020019060010190808311610862575b5050505050905060006001825161088d9190611984565b67ffffffffffffffff8111156108a6576108a5611b72565b5b6040519080825280602002602001820160405280156108d45781602001602082028036833780820191505090505b5090506000805b600260008667ffffffffffffffff1667ffffffffffffffff1681526020019081526020016000208054905081101561098b578584828151811061092157610920611b43565b5b6020026020010151146109785783818151811061094157610940611b43565b5b602002602001015183838151811061095c5761095b611b43565b5b602002602001018181525050600182610975919061192e565b91505b808061098390611a45565b9150506108db565b5081600260008667ffffffffffffffff1667ffffffffffffffff16815260200190815260200160002090805190602001906109c792919061117c565b5060008060008781526020019081526020016000206040518060c0016040529081600082015481526020016001820160009054906101000a900467ffffffffffffffff1667ffffffffffffffff1667ffffffffffffffff168152602001600282018054610a3390611a13565b80601f0160208091040260200160405190810160405280929190818152602001828054610a5f90611a13565b8015610aac5780601f10610a8157610100808354040283529160200191610aac565b820191906000526020600020905b815481529060010190602001808311610a8f57829003601f168201915b5050505050815260200160038201548152602001600482018054610acf90611a13565b80601f0160208091040260200160405190810160405280929190818152602001828054610afb90611a13565b8015610b485780601f10610b1d57610100808354040283529160200191610b48565b820191906000526020600020905b815481529060010190602001808311610b2b57829003601f168201915b5050505050815260200160058201805480602002602001604051908101604052809291908181526020018280548015610bd457602002820191906000526020600020906000905b82829054906101000a900467ffffffffffffffff1667ffffffffffffffff1681526020019060080190602082600701049283019260010382029150808411610b8f5790505b505050505081525050905060008160a001519050600060018251610bf89190611984565b67ffffffffffffffff811115610c1157610c10611b72565b5b604051908082528060200260200182016040528015610c3f5781602001602082028036833780820191505090505b5090506000935060005b82518167ffffffffffffffff161015610d18578767ffffffffffffffff16838267ffffffffffffffff1681518110610c8457610c83611b43565b5b602002602001015167ffffffffffffffff1614610d0557828167ffffffffffffffff1681518110610cb857610cb7611b43565b5b6020026020010151828681518110610cd357610cd2611b43565b5b602002602001019067ffffffffffffffff16908167ffffffffffffffff1681525050600185610d02919061192e565b94505b8080610d1090611a8e565b915050610c49565b50808360a00181905250826000808a81526020019081526020016000206000820151816000015560208201518160010160006101000a81548167ffffffffffffffff021916908367ffffffffffffffff1602179055506040820151816002019080519060200190610d8a9291906111c9565b50606082015181600301556080820151816004019080519060200190610db19291906111c9565b5060a0820151816005019080519060200190610dce92919061124f565b509050505050505050505050565b81816000808681526020019081526020016000206004019190610e0092919061130b565b50505050565b600260008267ffffffffffffffff1667ffffffffffffffff1681526020019081526020016000208290806001815401808255809150506001900390600052602060002001600090919091909150556000808381526020019081526020016000206005018190806001815401808255809150506001900390600052602060002090600491828204019190066008029091909190916101000a81548167ffffffffffffffff021916908367ffffffffffffffff1602179055505050565b600042600143610ed19190611984565b40604051602001610ee3929190611815565b6040516020818303038152906040528051906020012090506000878583604051602001610f1293929190611841565b6040516020818303038152906040528051906020012090506040518060c001604052808281526020018967ffffffffffffffff16815260200188888080601f016020809104026020016040519081016040528093929190818152602001838380828437600081840152601f19601f82011690508083019250505050505050815260200186815260200185858080601f016020809104026020016040519081016040528093929190818152602001838380828437600081840152601f19601f820116905080830192505050505050508152602001600067ffffffffffffffff81111561100057610fff611b72565b5b60405190808252806020026020018201604052801561102e5781602001602082028036833780820191505090505b508152506000808381526020019081526020016000206000820151816000015560208201518160010160006101000a81548167ffffffffffffffff021916908367ffffffffffffffff16021790555060408201518160020190805190602001906110999291906111c9565b506060820151816003015560808201518160040190805190602001906110c09291906111c9565b5060a08201518160050190805190602001906110dd92919061124f565b50905050600160008967ffffffffffffffff1667ffffffffffffffff1681526020019081526020016000208190806001815401808255809150506001900390600052602060002001600090919091909150555050505050505050565b6040518060c0016040528060008019168152602001600067ffffffffffffffff168152602001606081526020016000815260200160608152602001606081525090565b8280548282559060005260206000209081019282156111b8579160200282015b828111156111b757825182559160200191906001019061119c565b5b5090506111c59190611391565b5090565b8280546111d590611a13565b90600052602060002090601f0160209004810192826111f7576000855561123e565b82601f1061121057805160ff191683800117855561123e565b8280016001018555821561123e579182015b8281111561123d578251825591602001919060010190611222565b5b50905061124b91906113ae565b5090565b828054828255906000526020600020906003016004900481019282156112fa5791602002820160005b838211156112c457835183826101000a81548167ffffffffffffffff021916908367ffffffffffffffff1602179055509260200192600801602081600701049283019260010302611278565b80156112f85782816101000a81549067ffffffffffffffff02191690556008016020816007010492830192600103026112c4565b505b50905061130791906113ae565b5090565b82805461131790611a13565b90600052602060002090601f0160209004810192826113395760008555611380565b82601f1061135257803560ff1916838001178555611380565b82800160010185558215611380579182015b8281111561137f578235825591602001919060010190611364565b5b50905061138d91906113ae565b5090565b5b808211156113aa576000816000905550600101611392565b5090565b5b808211156113c75760008160009055506001016113af565b5090565b6000813590506113da81611bd8565b92915050565b60008083601f8401126113f6576113f5611ba6565b5b8235905067ffffffffffffffff81111561141357611412611ba1565b5b60208301915083600182028301111561142f5761142e611bab565b5b9250929050565b60008135905061144581611bef565b92915050565b60008135905061145a81611c06565b92915050565b60008060006040848603121561147957611478611bb5565b5b6000611487868287016113cb565b935050602084013567ffffffffffffffff8111156114a8576114a7611bb0565b5b6114b4868287016113e0565b92509250509250925092565b600080604083850312156114d7576114d6611bb5565b5b60006114e5858286016113cb565b92505060206114f68582860161144b565b9150509250929050565b60006020828403121561151657611515611bb5565b5b60006115248482850161144b565b91505092915050565b6000806000806000806080878903121561154a57611549611bb5565b5b600061155889828a0161144b565b965050602087013567ffffffffffffffff81111561157957611578611bb0565b5b61158589828a016113e0565b9550955050604061159889828a01611436565b935050606087013567ffffffffffffffff8111156115b9576115b8611bb0565b5b6115c589828a016113e0565b92509250509295509295509295565b60006115e08383611732565b905092915050565b60006115f483836117ef565b60208301905092915050565b600061160b826118c0565b61161581856118fb565b935083602082028501611627856118a0565b8060005b85811015611663578484038952815161164485826115d4565b945061164f836118e1565b925060208a0199505060018101905061162b565b50829750879550505050505092915050565b6000611680826118cb565b61168a818561190c565b9350611695836118b0565b8060005b838110156116c65781516116ad88826115e8565b97506116b8836118ee565b925050600181019050611699565b5085935050505092915050565b6116dc816119b8565b82525050565b6116f36116ee826119b8565b611abf565b82525050565b6000611704826118d6565b61170e818561191d565b935061171e8185602086016119e0565b61172781611bba565b840191505092915050565b600060c08301600083015161174a60008601826116d3565b50602083015161175d60208601826117ef565b506040830151848203604086015261177582826116f9565b915050606083015161178a60608601826117c9565b50608083015184820360808601526117a282826116f9565b91505060a083015184820360a08601526117bc8282611675565b9150508091505092915050565b6117d2816119c2565b82525050565b6117e96117e4826119c2565b611ac9565b82525050565b6117f8816119cc565b82525050565b61180f61180a826119cc565b611ad3565b82525050565b600061182182856117d8565b60208201915061183182846116e2565b6020820191508190509392505050565b600061184d82866117fe565b60088201915061185d82856117d8565b60208201915061186d82846116e2565b602082019150819050949350505050565b600060208201905081810360008301526118988184611600565b905092915050565b6000819050602082019050919050565b6000819050602082019050919050565b600081519050919050565b600081519050919050565b600081519050919050565b6000602082019050919050565b6000602082019050919050565b600082825260208201905092915050565b600082825260208201905092915050565b600082825260208201905092915050565b6000611939826119c2565b9150611944836119c2565b9250827fffffffffffffffffffffffffffffffffffffffffffffffffffffffffffffffff0382111561197957611978611ae5565b5b828201905092915050565b600061198f826119c2565b915061199a836119c2565b9250828210156119ad576119ac611ae5565b5b828203905092915050565b6000819050919050565b6000819050919050565b600067ffffffffffffffff82169050919050565b60005b838110156119fe5780820151818401526020810190506119e3565b83811115611a0d576000848401525b50505050565b60006002820490506001821680611a2b57607f821691505b60208210811415611a3f57611a3e611b14565b5b50919050565b6000611a50826119c2565b91507fffffffffffffffffffffffffffffffffffffffffffffffffffffffffffffffff821415611a8357611a82611ae5565b5b600182019050919050565b6000611a99826119cc565b915067ffffffffffffffff821415611ab457611ab3611ae5565b5b600182019050919050565b6000819050919050565b6000819050919050565b6000611ade82611bcb565b9050919050565b7f4e487b7100000000000000000000000000000000000000000000000000000000600052601160045260246000fd5b7f4e487b7100000000000000000000000000000000000000000000000000000000600052602260045260246000fd5b7f4e487b7100000000000000000000000000000000000000000000000000000000600052603260045260246000fd5b7f4e487b7100000000000000000000000000000000000000000000000000000000600052604160045260246000fd5b600080fd5b600080fd5b600080fd5b600080fd5b600080fd5b6000601f19601f8301169050919050565b60008160c01b9050919050565b611be1816119b8565b8114611bec57600080fd5b50565b611bf8816119c2565b8114611c0357600080fd5b50565b611c0f816119cc565b8114611c1a57600080fd5b5056fea2646970667358221220fd2d16a986dec89aa583fbb0e090b4fd2159849bbd40a654162084c36e19786464736f6c63430008070033",
  "immutableReferences": {},
  "source": "// SPDX-License-Identifier: MIT\r\npragma solidity ^0.8.7;\r\n\r\ncontract VaultContract {\r\n    struct Record {\r\n        bytes32 recordId;\r\n        uint64 patientAadhar;\r\n        string description;\r\n        uint256 date;\r\n        string file;\r\n        uint64[] viewers;\r\n    }\r\n\r\n    mapping(bytes32 => Record) private Records;\r\n    mapping(uint64 => bytes32[]) private PatientRecords;\r\n    mapping(uint64 => bytes32[]) private DoctorRecords;\r\n\r\n    function createRecord(\r\n        uint64 _patientAadhar,\r\n        string calldata _description,\r\n        uint256 _date,\r\n        string calldata _file\r\n    ) public {\r\n        bytes32 randomHash = keccak256(\r\n            abi.encodePacked(block.timestamp, blockhash(block.number - 1))\r\n        );\r\n        bytes32 recordId = keccak256(\r\n            abi.encodePacked(_patientAadhar, _date, randomHash)\r\n        );\r\n        Records[recordId] = Record(\r\n            recordId,\r\n            _patientAadhar,\r\n            _description,\r\n            _date,\r\n            _file,\r\n            new uint64[](0)\r\n        );\r\n        PatientRecords[_patientAadhar].push(recordId);\r\n    }\r\n\r\n    function addFilesToRecord(bytes32 _recordId, string calldata file) public {\r\n        Records[_recordId].file = file;\r\n    }\r\n\r\n    function grantAccess(bytes32 _recordId, uint64 _doctorAadhar) public {\r\n        DoctorRecords[_doctorAadhar].push(_recordId);\r\n        Records[_recordId].viewers.push(_doctorAadhar);\r\n    }\r\n\r\n    function revokeAccess(bytes32 _recordId, uint64 _doctorAadhar) public {\r\n        bytes32[] memory doctorRecords = DoctorRecords[_doctorAadhar];\r\n        bytes32[] memory newRecords = new bytes32[](doctorRecords.length - 1);\r\n        uint idx = 0;\r\n        for (uint256 i = 0; i < DoctorRecords[_doctorAadhar].length; i++) {\r\n            if (doctorRecords[i] != _recordId) {\r\n                newRecords[idx] = doctorRecords[i];\r\n                idx += 1;\r\n            }\r\n        }\r\n        DoctorRecords[_doctorAadhar] = newRecords;\r\n\r\n        Record memory record = Records[_recordId];\r\n        uint64[] memory viewers = record.viewers;\r\n        uint64[] memory newViewers = new uint64[](viewers.length - 1);\r\n        idx = 0;\r\n        for (uint64 i = 0; i < viewers.length; i++) {\r\n            if (viewers[i] != _doctorAadhar) {\r\n                newViewers[idx] = viewers[i];\r\n                idx += 1;\r\n            }\r\n        }\r\n        record.viewers = newViewers;\r\n        Records[_recordId] = record;\r\n    }\r\n\r\n    event GetRecords(Record[] records);\r\n\r\n    function getRecordsDoctor(uint64 _doctorAadhar) public {\r\n        bytes32[] memory doctorRecords = DoctorRecords[_doctorAadhar];\r\n        Record[] memory records = new Record[](doctorRecords.length);\r\n        for (uint256 i = 0; i < doctorRecords.length; i++) {\r\n            records[i] = Records[doctorRecords[i]];\r\n        }\r\n        emit GetRecords(records);\r\n    }\r\n\r\n    function getRecordsPatient(uint64 _patientAadhar) public {\r\n        bytes32[] memory patientRecords = PatientRecords[_patientAadhar];\r\n        Record[] memory records = new Record[](patientRecords.length);\r\n        for (uint256 i = 0; i < patientRecords.length; i++) {\r\n            records[i] = Records[patientRecords[i]];\r\n        }\r\n        emit GetRecords(records);\r\n    }\r\n}\r\n",
  "sourcePath": "C:\\Users\\amanc\\OneDrive\\Desktop\\MedBez\\contracts\\VaultContract.sol",
  "compiler": {
    "name": "solc",
    "version": "0.8.7+commit.e28d00a7.Emscripten.clang"
  },
  "schemaVersion": "3.4.14",
  "updatedAt": "2023-08-19T07:11:14.737Z",
  "networkType": "ethereum",
  "devdoc": {
    "kind": "dev",
    "methods": {},
    "version": 1
  },
  "userdoc": {
    "kind": "user",
    "methods": {},
    "version": 1
  }
}